{"contracts/MintMyMoment.sol":{"MintMyMoment":{"abi":[{"anonymous":false,"inputs":[{"indexed":true,"internalType":"address","name":"minter","type":"address"},{"indexed":false,"internalType":"string","name":"title","type":"string"},{"indexed":false,"internalType":"string","name":"uri","type":"string"}],"name":"MomentMinted","type":"event"},{"inputs":[{"internalType":"string","name":"title","type":"string"},{"internalType":"string","name":"","type":"string"},{"internalType":"string","name":"","type":"string"},{"internalType":"uint256","name":"editionSize","type":"uint256"},{"internalType":"string","name":"uri","type":"string"}],"name":"mintMoment","outputs":[],"stateMutability":"nonpayable","type":"function"}],"evm":{"bytecode":{"linkReferences":{},"object":"608060405234801561001057600080fd5b506102fe806100206000396000f3fe608060405234801561001057600080fd5b506004361061002b5760003560e01c8063d737e76114610030575b600080fd5b61004361003e36600461019d565b610045565b005b876100885760405162461bcd60e51b815260206004820152600e60248201526d151a5d1b19481c995c5d5a5c995960921b60448201526064015b60405180910390fd5b806100c45760405162461bcd60e51b815260206004820152600c60248201526b155492481c995c5d5a5c995960a21b604482015260640161007f565b600083116101025760405162461bcd60e51b815260206004820152600b60248201526a045646974696f6e203e20360ac1b604482015260640161007f565b336001600160a01b03167fe940772c3523ff75c5e77d09157a7ac541d1fe475f895e49d5ed0cc09a8bb7408a8a85856040516101419493929190610296565b60405180910390a2505050505050505050565b60008083601f84011261016657600080fd5b50813567ffffffffffffffff81111561017e57600080fd5b60208301915083602082850101111561019657600080fd5b9250929050565b600080600080600080600080600060a08a8c0312156101bb57600080fd5b893567ffffffffffffffff808211156101d357600080fd5b6101df8d838e01610154565b909b50995060208c01359150808211156101f857600080fd5b6102048d838e01610154565b909950975060408c013591508082111561021d57600080fd5b6102298d838e01610154565b909750955060608c0135945060808c013591508082111561024957600080fd5b506102568c828d01610154565b915080935050809150509295985092959850929598565b81835281816020850137506000828201602090810191909152601f909101601f19169091010190565b6040815260006102aa60408301868861026d565b82810360208401526102bd81858761026d565b97965050505050505056fea264697066735822122019802df8647679ca12ffc639333c710f230c1da4d7b2885377cf31e70d843cc664736f6c63430008180033","opcodes":"PUSH1 0x80 PUSH1 0x40 MSTORE CALLVALUE DUP1 ISZERO PUSH2 0x10 JUMPI PUSH1 0x0 DUP1 REVERT JUMPDEST POP PUSH2 0x2FE DUP1 PUSH2 0x20 PUSH1 0x0 CODECOPY PUSH1 0x0 RETURN INVALID PUSH1 0x80 PUSH1 0x40 MSTORE CALLVALUE DUP1 ISZERO PUSH2 0x10 JUMPI PUSH1 0x0 DUP1 REVERT JUMPDEST POP PUSH1 0x4 CALLDATASIZE LT PUSH2 0x2B JUMPI PUSH1 0x0 CALLDATALOAD PUSH1 0xE0 SHR DUP1 PUSH4 0xD737E761 EQ PUSH2 0x30 JUMPI JUMPDEST PUSH1 0x0 DUP1 REVERT JUMPDEST PUSH2 0x43 PUSH2 0x3E CALLDATASIZE PUSH1 0x4 PUSH2 0x19D JUMP JUMPDEST PUSH2 0x45 JUMP JUMPDEST STOP JUMPDEST DUP8 PUSH2 0x88 JUMPI PUSH1 0x40 MLOAD PUSH3 0x461BCD PUSH1 0xE5 SHL DUP2 MSTORE PUSH1 0x20 PUSH1 0x4 DUP3 ADD MSTORE PUSH1 0xE PUSH1 0x24 DUP3 ADD MSTORE PUSH14 0x151A5D1B19481C995C5D5A5C9959 PUSH1 0x92 SHL PUSH1 0x44 DUP3 ADD MSTORE PUSH1 0x64 ADD JUMPDEST PUSH1 0x40 MLOAD DUP1 SWAP2 SUB SWAP1 REVERT JUMPDEST DUP1 PUSH2 0xC4 JUMPI PUSH1 0x40 MLOAD PUSH3 0x461BCD PUSH1 0xE5 SHL DUP2 MSTORE PUSH1 0x20 PUSH1 0x4 DUP3 ADD MSTORE PUSH1 0xC PUSH1 0x24 DUP3 ADD MSTORE PUSH12 0x155492481C995C5D5A5C9959 PUSH1 0xA2 SHL PUSH1 0x44 DUP3 ADD MSTORE PUSH1 0x64 ADD PUSH2 0x7F JUMP JUMPDEST PUSH1 0x0 DUP4 GT PUSH2 0x102 JUMPI PUSH1 0x40 MLOAD PUSH3 0x461BCD PUSH1 0xE5 SHL DUP2 MSTORE PUSH1 0x20 PUSH1 0x4 DUP3 ADD MSTORE PUSH1 0xB PUSH1 0x24 DUP3 ADD MSTORE PUSH11 0x45646974696F6E203E203 PUSH1 0xAC SHL PUSH1 0x44 DUP3 ADD MSTORE PUSH1 0x64 ADD PUSH2 0x7F JUMP JUMPDEST CALLER PUSH1 0x1 PUSH1 0x1 PUSH1 0xA0 SHL SUB AND PUSH32 0xE940772C3523FF75C5E77D09157A7AC541D1FE475F895E49D5ED0CC09A8BB740 DUP11 DUP11 DUP6 DUP6 PUSH1 0x40 MLOAD PUSH2 0x141 SWAP5 SWAP4 SWAP3 SWAP2 SWAP1 PUSH2 0x296 JUMP JUMPDEST PUSH1 0x40 MLOAD DUP1 SWAP2 SUB SWAP1 LOG2 POP POP POP POP POP POP POP POP POP JUMP JUMPDEST PUSH1 0x0 DUP1 DUP4 PUSH1 0x1F DUP5 ADD SLT PUSH2 0x166 JUMPI PUSH1 0x0 DUP1 REVERT JUMPDEST POP DUP2 CALLDATALOAD PUSH8 0xFFFFFFFFFFFFFFFF DUP2 GT ISZERO PUSH2 0x17E JUMPI PUSH1 0x0 DUP1 REVERT JUMPDEST PUSH1 0x20 DUP4 ADD SWAP2 POP DUP4 PUSH1 0x20 DUP3 DUP6 ADD ADD GT ISZERO PUSH2 0x196 JUMPI PUSH1 0x0 DUP1 REVERT JUMPDEST SWAP3 POP SWAP3 SWAP1 POP JUMP JUMPDEST PUSH1 0x0 DUP1 PUSH1 0x0 DUP1 PUSH1 0x0 DUP1 PUSH1 0x0 DUP1 PUSH1 0x0 PUSH1 0xA0 DUP11 DUP13 SUB SLT ISZERO PUSH2 0x1BB JUMPI PUSH1 0x0 DUP1 REVERT JUMPDEST DUP10 CALLDATALOAD PUSH8 0xFFFFFFFFFFFFFFFF DUP1 DUP3 GT ISZERO PUSH2 0x1D3 JUMPI PUSH1 0x0 DUP1 REVERT JUMPDEST PUSH2 0x1DF DUP14 DUP4 DUP15 ADD PUSH2 0x154 JUMP JUMPDEST SWAP1 SWAP12 POP SWAP10 POP PUSH1 0x20 DUP13 ADD CALLDATALOAD SWAP2 POP DUP1 DUP3 GT ISZERO PUSH2 0x1F8 JUMPI PUSH1 0x0 DUP1 REVERT JUMPDEST PUSH2 0x204 DUP14 DUP4 DUP15 ADD PUSH2 0x154 JUMP JUMPDEST SWAP1 SWAP10 POP SWAP8 POP PUSH1 0x40 DUP13 ADD CALLDATALOAD SWAP2 POP DUP1 DUP3 GT ISZERO PUSH2 0x21D JUMPI PUSH1 0x0 DUP1 REVERT JUMPDEST PUSH2 0x229 DUP14 DUP4 DUP15 ADD PUSH2 0x154 JUMP JUMPDEST SWAP1 SWAP8 POP SWAP6 POP PUSH1 0x60 DUP13 ADD CALLDATALOAD SWAP5 POP PUSH1 0x80 DUP13 ADD CALLDATALOAD SWAP2 POP DUP1 DUP3 GT ISZERO PUSH2 0x249 JUMPI PUSH1 0x0 DUP1 REVERT JUMPDEST POP PUSH2 0x256 DUP13 DUP3 DUP14 ADD PUSH2 0x154 JUMP JUMPDEST SWAP2 POP DUP1 SWAP4 POP POP DUP1 SWAP2 POP POP SWAP3 SWAP6 SWAP9 POP SWAP3 SWAP6 SWAP9 POP SWAP3 SWAP6 SWAP9 JUMP JUMPDEST DUP2 DUP4 MSTORE DUP2 DUP2 PUSH1 0x20 DUP6 ADD CALLDATACOPY POP PUSH1 0x0 DUP3 DUP3 ADD PUSH1 0x20 SWAP1 DUP2 ADD SWAP2 SWAP1 SWAP2 MSTORE PUSH1 0x1F SWAP1 SWAP2 ADD PUSH1 0x1F NOT AND SWAP1 SWAP2 ADD ADD SWAP1 JUMP JUMPDEST PUSH1 0x40 DUP2 MSTORE PUSH1 0x0 PUSH2 0x2AA PUSH1 0x40 DUP4 ADD DUP7 DUP9 PUSH2 0x26D JUMP JUMPDEST DUP3 DUP2 SUB PUSH1 0x20 DUP5 ADD MSTORE PUSH2 0x2BD DUP2 DUP6 DUP8 PUSH2 0x26D JUMP JUMPDEST SWAP8 SWAP7 POP POP POP POP POP POP POP JUMP INVALID LOG2 PUSH5 0x6970667358 0x22 SLT KECCAK256 NOT DUP1 0x2D 0xF8 PUSH5 0x7679CA12FF 0xC6 CODECOPY CALLER EXTCODECOPY PUSH18 0xF230C1DA4D7B2885377CF31E70D843CC664 PUSH20 0x6F6C634300081800330000000000000000000000 "},"methodIdentifiers":{"mintMoment(string,string,string,uint256,string)":"d737e761"}}}}}