{
  "_format": "hh-sol-artifact-1",
  "contractName": "MintMyMoment",
  "sourceName": "contracts/MintMyMoment.sol",
  "abi": [
    {
      "anonymous": false,
      "inputs": [
        {
          "indexed": true,
          "internalType": "address",
          "name": "minter",
          "type": "address"
        },
        {
          "indexed": false,
          "internalType": "string",
          "name": "title",
          "type": "string"
        },
        {
          "indexed": false,
          "internalType": "string",
          "name": "uri",
          "type": "string"
        }
      ],
      "name": "MomentMinted",
      "type": "event"
    },
    {
      "inputs": [
        {
          "internalType": "string",
          "name": "title",
          "type": "string"
        },
        {
          "internalType": "string",
          "name": "",
          "type": "string"
        },
        {
          "internalType": "string",
          "name": "",
          "type": "string"
        },
        {
          "internalType": "uint256",
          "name": "editionSize",
          "type": "uint256"
        },
        {
          "internalType": "string",
          "name": "uri",
          "type": "string"
        }
      ],
      "name": "mintMoment",
      "outputs": [],
      "stateMutability": "nonpayable",
      "type": "function"
    }
  ],
  "bytecode": "0x608060405234801561001057600080fd5b506102fe806100206000396000f3fe608060405234801561001057600080fd5b506004361061002b5760003560e01c8063d737e76114610030575b600080fd5b61004361003e36600461019d565b610045565b005b876100885760405162461bcd60e51b815260206004820152600e60248201526d151a5d1b19481c995c5d5a5c995960921b60448201526064015b60405180910390fd5b806100c45760405162461bcd60e51b815260206004820152600c60248201526b155492481c995c5d5a5c995960a21b604482015260640161007f565b600083116101025760405162461bcd60e51b815260206004820152600b60248201526a045646974696f6e203e20360ac1b604482015260640161007f565b336001600160a01b03167fe940772c3523ff75c5e77d09157a7ac541d1fe475f895e49d5ed0cc09a8bb7408a8a85856040516101419493929190610296565b60405180910390a2505050505050505050565b60008083601f84011261016657600080fd5b50813567ffffffffffffffff81111561017e57600080fd5b60208301915083602082850101111561019657600080fd5b9250929050565b600080600080600080600080600060a08a8c0312156101bb57600080fd5b893567ffffffffffffffff808211156101d357600080fd5b6101df8d838e01610154565b909b50995060208c01359150808211156101f857600080fd5b6102048d838e01610154565b909950975060408c013591508082111561021d57600080fd5b6102298d838e01610154565b909750955060608c0135945060808c013591508082111561024957600080fd5b506102568c828d01610154565b915080935050809150509295985092959850929598565b81835281816020850137506000828201602090810191909152601f909101601f19169091010190565b6040815260006102aa60408301868861026d565b82810360208401526102bd81858761026d565b97965050505050505056fea264697066735822122019802df8647679ca12ffc639333c710f230c1da4d7b2885377cf31e70d843cc664736f6c63430008180033",
  "linkReferences": {},
  "deployedLinkReferences": {}
}